:100CDB00E4F52CF52DF52E120FCE7F647E007D00F2
:100CEB007C00121125E52CC3940340047F00800483
:100CFB00E52C04FF8F2CE52CC39403506F74017EFD
:100D0B0000A82C088005C333CE33CED8F9FFEE33C1
:100D1B0095E0FDFCEF5545FFEE5544FEED5543FDCB
:100D2B00EC5542FCE4FBFAF9F8C3120A8B60047F22
:100D3B000180027F00EF603074017E00A82C0880D8
:100D4B0005C333CE33CED8F9F4FFEEF4FE3395E082
:100D5B00FDFCE5455FF545E5445EF544E5435DF592
:100D6B0043E5425CF5428004052C808AE52C24FE89
:100D7B00601F046003020CF0AD27AF261212EFE5E3
:100D8B00267008E5277004F524F525E4F52C020CF4
:100D9B00F07F647E007D007C00121125120ED8E4DA
:050DAB00F52C020CF024
:1011F500227D00225331223A2200222C2253322210
:101205003A2200222C224154223A22005354005300
:0E12150044005731005732004154000D0A00CA
:10004600064B000000000000065100000000000002
:100056006100030000000000000000000000000036
:10006600000000000000000000000000000000008A
:10007600000000000000000000000000000000007A
:10008600000000000000000000000000000000006A
:10009600000000000000000000000000000000005A
:1000A600000000000000000000000000000000004A
:1000B600000000000000000000000000000000003A
:1000C600000000000000000000000000000000002A
:1000D600000000000000000000000000000000001A
:1000E600000000000000000000000000000000000A
:1000F60000000000000000000000000000000000FA
:1001060000000000000000000000000000000000E9
:1001160000000000000000000000000000000000D9
:1001260000000000000000000000000000000000C9
:1001360000000000000000000000000000000000B9
:1001460000000000000000000000000000000000A9
:100156000000000062000000000000000000000037
:100166000000000000000000000000000000000089
:100176000000000000000000000000000000000079
:100186000000000000000000000000000000000069
:100196000000000000000000000000000000000059
:1001A6000000000000000000000000000000000049
:1001B6000000000000000000000000000000000039
:1001C6000000000000000000000000000000000029
:1001D6000000000000000000000000000000000019
:1001E6000000000000000000000000000000000009
:1001F60000000000000000000000000000000000F9
:1002060000000000000000000000000000000000E8
:1002160000000000000000000000000000000000D8
:1002260000000000000000000000000000000000C8
:1002360000000000000000000000000000000000B8
:1002460000000000000000000000000000000000A8
:100256000000000000000000000000000000000098
:100266000000000000000000000000000000000088
:100276000000000000000000000000000000000078
:100286000000000000000000000000000000000068
:100296000000000000000000000000000000000058
:1002A6000000000000000000000000000000000048
:1002B6000000000000000000000000000000000038
:1002C6000000000000000000000000000000000028
:1002D6000000000000000000000000000000000018
:1002E6000000000000000000000000000000000008
:1002F60000000000000000000000000000000000F8
:1003060000000000000000000000000000000000E7
:1003160000000000000000000000000000000000D7
:1003260000000000000000000000000000000000C7
:1003360000000000000000000000000000000000B7
:1003460000000000000000000000000000000000A7
:1003560000000000000000006080040000000000B3
:100366000000000000000000000000000000000087
:100376000000000000000000000000000000000077
:100386000000000000000000000000000000000067
:100396000000000000000000000000000000000057
:1003A6000000000000000000000000000000000047
:1003B6000000000000000000000000000000000037
:1003C6000000000000000000000000000000000027
:1003D60000000000000000000000000061000200B4
:1003E6000000000000000000000000000000000007
:1003F60000000000000000000000000000000000F7
:1004060000000000000000000000000000000000E6
:1004160000000000000000000000000000000000D6
:1004260000000000000000000000000000000000C6
:1004360000000000000000000000000000000000B6
:1004460000000000000000000000000000000000A6
:100456000000000000000000000000000000000096
:100466000000000000000000000000000000000086
:100476000000000000000000000000000000000076
:100486000000000000000000000000000000000066
:100496000000000000000000000000000000000056
:1004A6000000000000000000000000000000000046
:1004B6000000000000000000000000000000000036
:1004C6000000000000000000000000000000000026
:1004D6000000000000000000000000000000000016
:1004E6006100048000000000000000000000000021
:1004F60000000000000000000000000000000000F6
:1005060000000000000000000000000000000000E5
:1005160000000000000000000000000000000000D5
:1005260000000000000000000000000000000000C5
:1005360000000000000000000000000000000000B5
:1005460000000000000000000000000000000000A5
:100556000000000000000000000000000000000095
:100566000000000000000000000000000000000085
:100576000000000000000000000000000000000075
:100586000000000000000000000000000000000065
:100596000000000000000000000000000000000055
:1005A6000000000000000000000000000000000045
:1005B6000000000000000000000000000000000035
:1005C6000000000000000000000000000000000025
:1005D6000000000000000000000000000000000015
:1005E60000000000052600000000005D05800000F8
:1005F60000000000000000000000000000000000F5
:10060600000000000000000000000003570000008A
:10061600012400012500042000000000014900011A
:020626004A0088
:100FCE0012130153B2FB53B1FB43B10453B2F753A7
:100FDE00B1F743B1085396FD5395FD4396025396D0
:100FEE00FE5395FE4396015392EF5391EF439210A9
:100FFE005392FB5391FB4392045392F75391F74351
:10100E0092081212501200261212B2E4F514F513C1
:10101E00F512F511120016D2AF121191C2A1C2A093
:07102E00D294D292D293226A
:100B8500C2ACC2AFC2A8C2AAE4F5AF5394FE539358
:100B9500FE439401C2805394FD5393FD439402C2D6
:100BA500815394FB5393FB439404C2825394F753AC
:100BB50093F7439408C2835392FE5391FE439201E7
:100BC500C2905392FD5391FD439202C2915392FB01
:100BD5005391FB439204D2925392F75391F7439268
:100BE50008C2935392EF5391EF439210C2945392DC
:100BF500DF5391DF439220C2955392BF5391BF4378
:100C05009240C29653927F53917F439280C29753ED
:100C150096FE5395FE439601C2A05396FD5395FD4E
:100C2500439602D2A15396FB5395FB439604C2A269
:100C35005396F75395F7439608C2A35396EF5395EA
:100C4500EF439610C2A45396DF5395DF439620C217
:100C5500A55396BF5395BF439640C2A653967F535F
:100C6500957F439680C2A753B2FE53B1FE43B201AE
:100C7500C2B053B2FD53B1FD43B202C2B153B2FB90
:100C850053B1FB43B204C2B253B2F753B1F743B207
:100C950008C2B353B2EF53B1EF43B210C2B453B26B
:100CA500DF53B1DF43B220C2B553B2BF53B1BF4327
:100CB500B240C2B653B27F53B17F43B280C2B7537D
:100CC500CAEF53C9EF43CA10C2CC53CADF53C9DFB9
:060CD50043CA20C2CD223B
:100ED800E4F523F522F521F520E5286401706B126D
:100EE8000B85E4F5BB75AA2F75ABF5E52A45296096
:100EF80019AE29AF2A7C007D3C120A0E7D0F120A1A
:100F080020E48F238E22F521F5200000438702007C
:100F18000074FF2523F523E52234FFF522E521346B
:100F2800FFF521E52034FFF520E4FFFEFDFCAB23AF
:100F3800AA22A921A820D3120A7550CEE52A45294C
:0D0F480060C8E4F529F52A120FCEE4F52863
:010F55002279
:100DB000E4F517E52475F00A84E5F0243090058900
:100DC000F0E52475F00A84F52475F00A84E5F02432
:100DD00030900588F0E52475F00A84F52475F00A52
:100DE00084E5F02430900587F0E52575F00A84E568
:100DF000F02430900594F0E52575F00A84F525750A
:100E0000F00A84E5F02430900593F0E52575F00AAA
:100E100084F52575F00A84E5F02430900592F0E41D
:100E2000F524F5257B017A0579807D1DFC1211C41E
:100E30007855E6FC08E6FD4C60097B017A027900F2
:0C0E40001210357BFF7A1179F50212C9FF
:10119100900580747BF078817C057D017BFF7A115D
:1011A10079F8120B68788A7C057D017BFF7A1179C9
:1011B100FF120B6878957C057D017BFF7A12790817
:0311C100020B68B6
:10129600E47849F61209C86422600C740129F9E45D
:0B12A6003AFA78490680ED7849E6FF2F
:0112B100221A
:10127400E4784AF61209C8FF64226011EF64206022
:101284000C740129F9E43AFA784A0680E7784AE6C8
:01129400FF5A
:011295002236
:10064000E4785AF608F6785BE6FF2400F582E43495
:1006500000F583E0601BC3EF785096E418965011C4
:10066000785BE6062400F582E43400F583E0B47B91
:10067000D5785BE6FFC37850E69FFF18E69400FE4E
:10068000C3EF940BEE940050030209C7785BE67E3B
:10069000002400F9EE3400FA7B017857A60308F62F
:1006A00008A6011209C8642260030209C1785786AE
:1006B0000308E6FA08E6F99000031209E1642260F3
:1006C000030209C19000041209E1643A60030209BF
:1006D000C19000011209E1FF901211E4936F6003D1
:1006E0000207A79000021209E1FF901211A3E49300
:1006F0006F60030207A79000061209E1FFC3648040
:1007000094B050030207A7D3EF648094B94003026A
:1007100007A79000071209E1FFC3648094B050035B
:100720000207A7D3EF648094B9507C7857860308FA
:10073000E6FA08E6F99000081209E1FFC364809424
:10074000B04064D3EF648094B9505C900007120904
:10075000E1FF3395E0FEEF24D0FFEE34FFFE7C0096
:100760007D0A120A0E9000081209E1FD3395E0FCA3
:10077000ED24D0FDEC34FFCD2FCD3EFCC004C005F0
:100780009000061209E1FF3395E0FEEF24D0FFEE62
:1007900034FFFE7C007D64120A0ED0E02FF52AD0D3
:1007A000E03EF5290209367857860308E6FA08E69E
:1007B000F99000011209E1FF901214E4936F70693F
:1007C0009000021209E1FF901214A3E4936F705994
:1007D0009000061209E1FF6430704E900007120984
:1007E000E1FE643070439000081209E1FD6430605E
:1007F00005ED64317033EE24D075F00AA4FE90004C
:10080000081209E124D02EFEEF24D075F064A42E46
:10081000F5286012E5454404F545E544F544E54313
:10082000F543E542F5420209367857860308E6FAB1
:1008300008E6F99000011209E1FF901217E4936FA6
:10084000706F9000021209E1FF901217A3E4936FFA
:10085000705F9000061209E1643070559000071235
:1008600009E16430704B9000081209E1FF643060C8
:1008700005EF6431703BE5454402F545E544F54438
:10088000E543F543E542F5429000071209E124D023
:1008900075F00AA4FF9000081209E124D02FFF9000
:1008A00000061209E124D075F064A42FF526020990
:1008B000367857860308E6FA08E6F990000112092F
:1008C000E1FF90121AE4936F70759000021209E133
:1008D000FF90121AA3E4936F70659000061209E16D
:1008E0006430705B9000071209E164307051900031
:1008F000081209E1FF64306005EF64317041E5459D
:100900004402F545E544F544E543F543E542F54247
:100910009000071209E124D075F00AA4FF900008A6
:100920001209E124D02FFF9000061209E124D075AE
:10093000F064A42FF527785B740B26F60206717815
:1009400057860308E6FA08E6F99000011209E1FF6C
:1009500090121DE4936F70609000021209E1FF9005
:10096000121DA3E4936F7050E92406F9E43AFA12D9
:100970001274785AEFF6D3940040467857860308ED
:10098000E6FA08E62406F9E43AFA785AE6FD121186
:100990005C7BFF7A1279201212DC7857860308E616
:1009A000FA08E62406F9E43AFA121296785BEF2682
:1009B000F6740826F6020671785B740526F60206C0
:0709C00071785B060206716D
:0109C700220D
:03000E00020DB030
:09062800041100000000011000A3
:101125008F328E318D308C2FE5322514F532E53135
:101135003513F531E5303512F530E52F3511F52F3D
:10114500AF14AE13AD12AC11AB32AA31A930A82F32
:07115500D3120A8B50EA22BD
:1013010075BA8090FE00E4F0A37402F0E4F5BA220D
:1012B200C2AF538E7F5389F0758AF0758CD8C28D78
:0712C200D28CD2A9D2AF22A9
:03000B0002108F51
:10108F00C0E0C0F0C0D075D018E5142401F514E409
:10109F003513F513E43512F512E43511F51105107A
:1010AF00E51075F0648485F0100515E515B4640638
:1010BF007516057515007854E6D39402400116781D
:1010CF004EE6D39402400416751000D0D0D0F0D065
:0210DF00E032FD
:0806310002400000023E00003F
:03002300020F5673
:100F5600C0E0C083C082C0D075D008309925C29940
:100F6600784DE6B40119784BE6FF08666011740007
:100F76002FF582E43403F583E0F5991806800478AA
:100F86004D7600309839C298784FE6FE08E6FF4E57
:100F96006008784EE6D394024025C3EF94FFEE94A2
:100FA600015018784F0806E618860E7001061424BC
:100FB60000F58274003EF583E599F0784E7605D00B
:080FC600D0D082D083D0E032CC
:10125000D2B7D2B653B2BF53B1BF75A24075985042
:10126000438E40538EFE53890F758BE6758DFFD2EA
:041270008ED2AC224C
:10122300784CE6FE2401FDE433FC18E66D7001EC16
:10123300600E74002EF582E43403F583EFF00806A4
:0D124300784DE6700776018F99784B0622F2
:0A11C4008B338A3489358C368D3761
:1011CE00E4F538F538C3E5389537E495365017AB66
:1011DE0033AA34A9358538827583001209E1FF12CE
:0611EE001223053880DF2A
:0111F40022D8
:1012C9001209C8FF600C121223740129F9E43AFAD1
:0312D90080EE2282
:030043000210E1C7
:1010E100C0E0C083C082C0D075D008E59A30E01F4F
:1010F100539AFE78550806E618860E7001061424E8
:1011010000F58274023EF583E59BF078547605E59F
:101111009A30E107539AFD78537600D0D0D082D02F
:0411210083D0E03265
:10002600D290D2915392FE5391FE759A50438E040C
:0D00360075D7E675D6FF438E1075AF012219
:0C1331007853E670FB785376018F9B2206
:10115C008B468A478948E4F540F541EDFFC3E541EC
:10116C009FE5409400501DAB46AA47A94885418293
:10117C008540831209E1FF1213310541E54170DB13
:05118C00054080D722A0
:101035008B398A3A893B8C3C8D3DE4F53EF53FC3BF
:10104500E53F953DE53E953C503FAB39AA3AA93B76
:10105500853F82853E831209E1FF640D6021EF64BF
:101065000A601CEFB422057F5C121223AB39AA3A41
:10107500A93B853F82853E831209E1FF12122305B4
:0A1085003FE53F70BA053E80B62239
:1012DC001209C8FF600C121331740129F9E43AFAAF
:0312EC0080EE226F
:03000300021311D4
:10131100C0E0C0D0E526B401020524D0D0D0E0322F
:03001300021321B4
:10132100C0E0C0D0E527B401020525D0D0D0E0321D
:0D001600C2AFD288D2A8D28AD2AAD2AF221D
:1012EF00BF0104D2A88002C2A8BD0103D2AA22C2A4
:0212FF00AA2221
:0400060075C1262278
:0606390004420000000075
:03000000020E4CA1
:0C0E4C00787FE4F6D8FD75815B020E9300
:1009C800BB010689828A83E0225002E722BBFE022D
:0909D800E32289828A83E4932260
:1009E100BB010CE58229F582E5833AF583E02250CB
:1009F10006E92582F8E622BBFE06E92582F8E22215
:0D0A0100E58229F582E5833AF583E493222E
:100A0E00EF8DF0A4A8F0CF8CF0A428CE8DF0A42EFC
:020A1E00FE22B6
:100A2000BC000BBE0029EF8DF084FFADF022E4CCBA
:100A3000F875F008EF2FFFEE33FEEC33FCEE9DEC83
:100A4000984005FCEE9DFE0FD5F0E9E4CEFD22EDC9
:100A5000F8F5F0EE8420D21CFEADF075F008EF2F13
:100A6000FFED33FD4007985006D5F0F222C398FD04
:050A70000FD5F0EA22A1
:100A7500EB9FF5F0EA9E42F0E99D42F0EC6480C8F8
:060A850064809845F02298
:100A8B00EB9FF5F0EA9E42F0E99D42F0E89C45F0C1
:010A9B002238
:100A9C00E709F60870FA8046E709F20870FA803E1A
:100AAC0088828C83E709F0A370FA807EE309F6084C
:100ABC0070FA8076E309F20870FA806E88828C8373
:100ACC00E309F0A370FA806289828A83E0A3F608B6
:100ADC0070FA805689828A83E0A3F20870FA804A01
:100AEC0080D280FA80C680D4806580F280318010FC
:100AFC0080A680EA809A80A880DA80E280CA803161
:100B0C0089828A83ECFAE493A3C8C582C8CCC583D6
:100B1C00CCF0A3C8C582C8CCC583CC70E9800D8944
:100B2C00828A83E493A3F60870F9ECFAA9F0EDFB42
:100B3C002289828A83ECFAE0A3C8C582C8CCC5831B
:100B4C00CCF0A3C8C582C8CCC583CC70EA80DD8943
:100B5C00828A83E493A3F20870F980CE88F0ED24A6
:100B6C0002B4040050C4F582EB2402B4040050BA61
:090B7C002323458223900AEC7347
:100E5800020CDBE493A3F8E493A34003F68001F2C9
:100E680008DFF48029E493A3F85407240CC8C3339B
:100E7800C4540F4420C8834004F456800146F6DF6A
:100E8800E4800B0102040810204080900046E47EB4
:100E9800019360BCA3FF543F30E509541FFEE4935F
:100EA800A360010ECF54C025E060A840B8E493A326
:100EB800FAE493A3F8E493A3C8C582C8CAC583CA51
:100EC800F0A3C8C582C8CAC583CADFE9DEE780BE09
:01063F0000BA
:00000001FF
