:0813CA004F4B32004F4B330082
:100D0700E4F52CF52DF52E12105E7F647E007D0034
:100D17007C001211B5E52CC3940340047F008004C6
:100D2700E52C04FF8F2CE52CC39403506F74017ED0
:100D370000A82C088005C333CE33CED8F9FFEE3395
:100D470095E0FDFCEF553DFFEE553CFEED553BFDB7
:100D5700EC553AFCE4FBFAF9F8C3120A8B60047FFE
:100D67000180027F00EF603074017E00A82C0880AC
:100D770005C333CE33CED8F9F4FFEEF4FE3395E056
:100D8700FDFCE53D5FF53DE53C5EF53CE53B5DF58E
:100D97003BE53A5CF53A8004052C808AE52C24FE75
:100DA7006018047038AD27AF2612137CE526702A29
:100DB700E5277026F524F52580207BFF7A1379CA6D
:100DC7001213567F647E007D007C001211B5120F4E
:100DD700687BFF7A1379CE121356E4F52C7843E635
:100DE700FF6022D39402501DE4F61206407844E6D1
:100DF700FE08E6FF7D007B017A007900120B85E48F
:100E07007844F608F67849E6FF7003020D1CD39480
:100E1700024003020D1CE4F612000E784BE6240193
:100E2700FF18E436FE7D007B017A027900120B85FC
:090E3700E4784AF608F6020D1CED
:10128500227D00225331223A2200222C225332227F
:101295003A2200222C224154223A22005354005370
:0E12A50044005731005732004154000D0A003A
:100046000640000000000000064600000000000018
:100056006100030000000000000000000000000036
:10006600000000000000000000000000000000008A
:10007600000000000000000000000000000000007A
:10008600000000000000000000000000000000006A
:10009600000000000000000000000000000000005A
:1000A600000000000000000000000000000000004A
:1000B600000000000000000000000000000000003A
:1000C600000000000000000000000000000000002A
:1000D600000000000000000000000000000000001A
:1000E600000000000000000000000000000000000A
:1000F60000000000000000000000000000000000FA
:1001060000000000000000000000000000000000E9
:1001160000000000000000000000000000000000D9
:1001260000000000000000000000000000000000C9
:1001360000000000000000000000000000000000B9
:1001460000000000000000000000000000000000A9
:100156000000000062000000000000000000000037
:100166000000000000000000000000000000000089
:100176000000000000000000000000000000000079
:100186000000000000000000000000000000000069
:100196000000000000000000000000000000000059
:1001A6000000000000000000000000000000000049
:1001B6000000000000000000000000000000000039
:1001C6000000000000000000000000000000000029
:1001D6000000000000000000000000000000000019
:1001E6000000000000000000000000000000000009
:1001F60000000000000000000000000000000000F9
:1002060000000000000000000000000000000000E8
:1002160000000000000000000000000000000000D8
:1002260000000000000000000000000000000000C8
:1002360000000000000000000000000000000000B8
:1002460000000000000000000000000000000000A8
:100256000000000000000000000000000000000098
:100266000000000000000000000000000000000088
:100276000000000000000000000000000000000078
:100286000000000000000000000000000000000068
:100296000000000000000000000000000000000058
:1002A6000000000000000000000000000000000048
:1002B6000000000000000000000000000000000038
:1002C6000000000000000000000000000000000028
:1002D6000000000000000000000000000000000018
:1002E6000000000000000000000000000000000008
:1002F60000000000000000000000000000000000F8
:1003060000000000000000000000000000000000E7
:1003160000000000000000000000000000000000D7
:1003260000000000000000000000000000000000C7
:1003360000000000000000000000000000000000B7
:1003460000000000000000000000000000000000A7
:1003560000000000000000006080040000000000B3
:100366000000000000000000000000000000000087
:100376000000000000000000000000000000000077
:100386000000000000000000000000000000000067
:100396000000000000000000000000000000000057
:1003A6000000000000000000000000000000000047
:1003B6000000000000000000000000000000000037
:1003C6000000000000000000000000000000000027
:1003D60000000000000000000000000061000200B4
:1003E6000000000000000000000000000000000007
:1003F60000000000000000000000000000000000F7
:1004060000000000000000000000000000000000E6
:1004160000000000000000000000000000000000D6
:1004260000000000000000000000000000000000C6
:1004360000000000000000000000000000000000B6
:1004460000000000000000000000000000000000A6
:100456000000000000000000000000000000000096
:100466000000000000000000000000000000000086
:100476000000000000000000000000000000000076
:100486000000000000000000000000000000000066
:100496000000000000000000000000000000000056
:1004A6000000000000000000000000000000000046
:1004B6000000000000000000000000000000000036
:1004C6000000000000000000000000000000000026
:1004D6000000000000000000000000000000000016
:1004E6006100048000000000000000000000000021
:1004F60000000000000000000000000000000000F6
:1005060000000000000000000000000000000000E5
:1005160000000000000000000000000000000000D5
:1005260000000000000000000000000000000000C5
:1005360000000000000000000000000000000000B5
:1005460000000000000000000000000000000000A5
:100556000000000000000000000000000000000095
:100566000000000000000000000000000000000085
:100576000000000000000000000000000000000075
:100586000000000000000000000000000000000065
:100596000000000000000000000000000000000055
:1005A6000000000000000000000000000000000045
:1005B6000000000000000000000000000000000035
:1005C6000000000000000000000000000000000025
:1005D6000000000000000000000000000000000015
:1005E60000000000052600000000005D05800000F8
:1005F60000000000000000000000000000000000F5
:100606000000000000000000000000034C00000095
:10061600012400012500042000000000013E000125
:020626003F0093
:10105E0012138E53B2FB53B1FB43B10453B2F75389
:10106E00B1F743B1085396FD5395FD43960253963F
:10107E00FE5395FE4396015392EF5391EF43921018
:10108E005392FB5391FB4392045392F75391F743C0
:10109E00920812130212002612133FE4F514F513F0
:1010AE00F512F511120016D2AF121221C2A1C2A072
:0710BE00D294D292D29322DA
:100BB100C2ACC2AFC2A8C2AAE4F5AF5394FE53932C
:100BC100FE439401C2805394FD5393FD439402C2AA
:100BD100815394FB5393FB439404C2825394F75380
:100BE10093F7439408C2835392FE5391FE439201BB
:100BF100C2905392FD5391FD439202C2915392FBD5
:100C01005391FB439204D2925392F75391F743923B
:100C110008C2935392EF5391EF439210C2945392AF
:100C2100DF5391DF439220C2955392BF5391BF434B
:100C31009240C29653927F53917F439280C29753C1
:100C410096FE5395FE439601C2A05396FD5395FD22
:100C5100439602D2A15396FB5395FB439604C2A23D
:100C61005396F75395F7439608C2A35396EF5395BE
:100C7100EF439610C2A45396DF5395DF439620C2EB
:100C8100A55396BF5395BF439640C2A653967F5333
:100C9100957F439680C2A753B2FE53B1FE43B20182
:100CA100C2B053B2FD53B1FD43B202C2B153B2FB64
:100CB10053B1FB43B204C2B253B2F753B1F743B2DB
:100CC10008C2B353B2EF53B1EF43B210C2B453B23F
:100CD100DF53B1DF43B220C2B553B2BF53B1BF43FB
:100CE100B240C2B653B27F53B17F43B280C2B75351
:100CF100CAEF53C9EF43CA10C2CC53CADF53C9DF8D
:060D010043CA20C2CD220E
:100F6800E4F523F522F521F520E5286401706B12DC
:100F78000BB1E4F5BB75AA2F75ABF5E52A452960D9
:100F880019AE29AF2A7C007D3C120A0E7D0F120A89
:100F980020E48F238E22F521F520000043870200EC
:100FA8000074FF2523F523E52234FFF522E52134DB
:100FB800FFF521E52034FFF520E4FFFEFDFCAB231F
:100FC800AA22A921A820D3120A7550CEE52A4529BC
:0D0FD80060C8E4F529F52A12105EE4F52842
:010FE50022E9
:100E4000E4F52FE52475F00A84E5F0243090058957
:100E5000F0E52475F00A84F52475F00A84E5F024A1
:100E600030900588F0E52475F00A84F52475F00AC1
:100E700084E5F02430900587F0E52575F00A84E5D7
:100E8000F02430900594F0E52575F00A84F5257579
:100E9000F00A84E5F02430900593F0E52575F00A1A
:100EA00084F52575F00A84E5F02430900592F0E48D
:100EB000F524F5257B017A0579807D1DFC121254FD
:100EC000784AE6FC08E6FD4C60097B017A0279006D
:0C0ED0001210C57BFF7A127985021356C0
:10122100900580747BF078817C057D017BFF7A12CB
:101231007988120B68788A7C057D017BFF7A1279A7
:101241008F120B6878957C057D017BFF7A12799866
:03125100020B6825
:10132300E4783EF61209C86422600C740129F9E4DA
:0B1333003AFA783E0680ED783EE6FFB7
:01133E00228C
:1012E000E4783FF61209C8FF64226011EF642060C1
:1012F0000C740129F9E43AFA783F0680E7783FE672
:01130000FFED
:0113010022C9
:10064000E4784FF608F67850E6FF2400F582E434AB
:1006500000F583E0601BC3EF784596E418965011CF
:100660007850E6062400F582E43400F583E0B47B9C
:10067000D57850E6FFC37845E69FFF18E69400FE64
:10068000C3EF940BEE940050030209C77850E67E46
:10069000002400F9EE3400FA7B01784CA60308F63A
:1006A00008A6011209C8642260030209C1784C86B9
:1006B0000308E6FA08E6F99000031209E1642260F3
:1006C000030209C19000041209E1643A60030209BF
:1006D000C19000011209E1FF9012A1E4936F600341
:1006E0000207A79000021209E1FF9012A1A3E49370
:1006F0006F60030207A79000061209E1FFC3648040
:1007000094B050030207A7D3EF648094B94003026A
:1007100007A79000071209E1FFC3648094B050035B
:100720000207A7D3EF648094B9507C784C86030805
:10073000E6FA08E6F99000081209E1FFC364809424
:10074000B04064D3EF648094B9505C900007120904
:10075000E1FF3395E0FEEF24D0FFEE34FFFE7C0096
:100760007D0A120A0E9000081209E1FD3395E0FCA3
:10077000ED24D0FDEC34FFCD2FCD3EFCC004C005F0
:100780009000061209E1FF3395E0FEEF24D0FFEE62
:1007900034FFFE7C007D64120A0ED0E02FF52AD0D3
:1007A000E03EF529020936784C860308E6FA08E6A9
:1007B000F99000011209E1FF9012A4E4936F7069AF
:1007C0009000021209E1FF9012A4A3E4936F705904
:1007D0009000061209E1FF6430704E900007120984
:1007E000E1FE643070439000081209E1FD6430605E
:1007F00005ED64317033EE24D075F00AA4FE90004C
:10080000081209E124D02EFEEF24D075F064A42E46
:10081000F5286012E53D4404F53DE53CF53CE53B3B
:10082000F53BE53AF53A020936784C860308E6FAD4
:1008300008E6F99000011209E1FF9012A7E4936F16
:10084000706F9000021209E1FF9012A7A3E4936F6A
:10085000705F9000061209E1643070559000071235
:1008600009E16430704B9000081209E1FF643060C8
:1008700005EF6431703BE53D4402F53DE53CF53C58
:10088000E53BF53BE53AF53A9000071209E124D043
:1008900075F00AA4FF9000081209E124D02FFF9000
:1008A00000061209E124D075F064A42FF526020990
:1008B00036784C860308E6FA08E6F990000112093A
:1008C000E1FF9012AAE4936F70759000021209E1A3
:1008D000FF9012AAA3E4936F70659000061209E1DD
:1008E0006430705B9000071209E164307051900031
:1008F000081209E1FF64306005EF64317041E53DA5
:100900004402F53DE53CF53CE53BF53BE53AF53A7F
:100910009000071209E124D075F00AA4FF900008A6
:100920001209E124D02FFF9000061209E124D075AE
:10093000F064A42FF5277850740B26F60206717820
:100940004C860308E6FA08E6F99000011209E1FF77
:100950009012ADE4936F70609000021209E1FF9075
:1009600012ADA3E4936F7050E92406F9E43AFA1249
:1009700012E0784FEFF6D394004046784C86030897
:10098000E6FA08E62406F9E43AFA784FE6FD121191
:10099000EC7BFF7A1279B0121369784C860308E673
:1009A000FA08E62406F9E43AFA1213237850EF26FF
:1009B000F6740826F60206717850740526F60206CB
:0709C0007178500602067178
:0109C700220D
:03000E00020E409F
:09062800041100000000011000A3
:1011B5008F328E318D308C2FE5322514F532E531A5
:1011C5003513F531E5303512F530E52F3511F52FAD
:1011D500AF14AE13AD12AC11AB32AA31A930A82FA2
:0711E500D3120A8B50EA222D
:10138E0075BA8090FE00E4F0A37402F0E4F5BA2280
:10133F00C2AF538E7F5389F0758AF0758CD8C28DEA
:07134F00D28CD2A9D2AF221B
:03000B0002111FC0
:10111F00C0E0C0F0C0D075D018E5142401F514E478
:10112F003513F513E43512F512E43511F5110510E9
:10113F00E51075F0648485F0100515E515B46406A7
:10114F007516057515007849E6D394024001167897
:10115F0043E6D39402400416751000D0D0D0F0D0DF
:02116F00E0326C
:0806310002380000023600004F
:03002300020FE6E3
:100FE600C0E0C083C082C0D075D008309925C299B0
:100FF6007842E6B401197840E6FF0866601174008D
:101006002FF582E43403F583E0F599180680047819
:10101600427600309839C2987844E6FE08E6FF4EDC
:1010260060087843E6D394024025C3EF94FFEE941C
:1010360001501878440806E618860E700106142436
:1010460000F58274003EF583E599F078437605D085
:08105600D0D082D083D0E0323B
:10130200D2B1D2B053B2FE53B1FE759850438E4063
:10131200538EFE53890F758BE6758DFFD28ED2AC3C
:0113220022A8
:1012B3007841E6FE2401FDE433FC18E66D7001EC91
:1012C300600E74002EF582E43403F583EFF0080614
:0D12D3007842E6700776018F997840062278
:0A1254008B308A3189328C338D34DF
:10125E00E4F535F535C3E5359534E495335017ABE4
:10126E0030AA31A9328535827583001209E1FF1249
:06127E0012B3053580DF0C
:011284002247
:101356001209C8FF600C1212B3740129F9E43AFAB3
:0313660080EE22F4
:0300430002117136
:10117100C0E0C083C082C0D075D008E59A30E01FBE
:10118100539AFE784A0806E618860E700106142462
:1011910000F58274023EF583E59BF078497605E51A
:1011A1009A30E107539AFD78487600D0D0D082D0AA
:0411B10083D0E032D5
:10002600D290D2915392FE5391FE759A50438E040C
:0D00360075D7E675D6FF438E1075AF012219
:0C13BE007848E670FB784876018F9B228F
:1011EC008B2F8A308931E4F538F539EDFFC3E539B9
:1011FC009FE5389400501DAB2FAA30A93185398258
:10120C008538831209E1FF1213BE0539E53970DB0D
:05121C00053880D72217
:1010C5008B308A3189328C338D34E4F536F537C36C
:1010D500E5379534E5369533503FAB30AA31A93223
:1010E5008537828536831209E1FF640D6021EF643F
:1010F5000A601CEFB422057F5C1212B3AB30AA3133
:10110500A9328537828536831209E1FF1212B305AC
:0A11150037E53770BA053680B622C0
:101369001209C8FF600C1213BE740129F9E43AFA94
:0313790080EE22E1
:0300030002139E47
:10139E00C0E0C0D0E526B401020524D0D0D0E032A2
:030013000213AE27
:1013AE00C0E0C0D0E527B401020525D0D0D0E03290
:0D001600C2AFD288D2A8D28AD2AAD2AF221D
:10137C00BF0104D2A88002C2A8BD0103D2AA22C216
:02138C00AA2293
:0400060075C1262278
:06063900043A000000007D
:03000000020EDC11
:0C0EDC00787FE4F6D8FD758150020F23EA
:1009C800BB010689828A83E0225002E722BBFE022D
:0909D800E32289828A83E4932260
:1009E100BB010CE58229F582E5833AF583E02250CB
:1009F10006E92582F8E622BBFE06E92582F8E22215
:0D0A0100E58229F582E5833AF583E493222E
:100A0E00EF8DF0A4A8F0CF8CF0A428CE8DF0A42EFC
:020A1E00FE22B6
:100A2000BC000BBE0029EF8DF084FFADF022E4CCBA
:100A3000F875F008EF2FFFEE33FEEC33FCEE9DEC83
:100A4000984005FCEE9DFE0FD5F0E9E4CEFD22EDC9
:100A5000F8F5F0EE8420D21CFEADF075F008EF2F13
:100A6000FFED33FD4007985006D5F0F222C398FD04
:050A70000FD5F0EA22A1
:100A7500EB9FF5F0EA9E42F0E99D42F0EC6480C8F8
:060A850064809845F02298
:100A8B00EB9FF5F0EA9E42F0E99D42F0E89C45F0C1
:010A9B002238
:100A9C00E709F60870FA8046E709F20870FA803E1A
:100AAC0088828C83E709F0A370FA807EE309F6084C
:100ABC0070FA8076E309F20870FA806E88828C8373
:100ACC00E309F0A370FA806289828A83E0A3F608B6
:100ADC0070FA805689828A83E0A3F20870FA804A01
:100AEC0080D280FA80C680D4806580F280318010FC
:100AFC0080A680EA809A80A880DA80E280CA803161
:100B0C0089828A83ECFAE493A3C8C582C8CCC583D6
:100B1C00CCF0A3C8C582C8CCC583CC70E9800D8944
:100B2C00828A83E493A3F60870F9ECFAA9F0EDFB42
:100B3C002289828A83ECFAE0A3C8C582C8CCC5831B
:100B4C00CCF0A3C8C582C8CCC583CC70EA80DD8943
:100B5C00828A83E493A3F20870F980CE88F0ED24A6
:100B6C0002B4040050C4F582EB2402B4040050BA61
:090B7C002323458223900AEC7347
:100B8500EF4E6012EF60010EEDBB010B89828A8387
:100B9500F0A3DFFCDEFA2289F05007F709DFFCA994
:0C0BA500F022BBFEFCF309DFFCA9F022EB
:100EE800020D07E493A3F8E493A34003F68001F20C
:100EF80008DFF48029E493A3F85407240CC8C3330B
:100F0800C4540F4420C8834004F456800146F6DFD9
:100F1800E4800B0102040810204080900046E47E23
:100F2800019360BCA3FF543F30E509541FFEE493CE
:100F3800A360010ECF54C025E060A840B8E493A395
:100F4800FAE493A3F8E493A3C8C582C8CAC583CAC0
:100F5800F0A3C8C582C8CAC583CADFE9DEE780BE78
:01063F0000BA
:00000001FF
